{
  "_format": "hh-sol-artifact-1",
  "contractName": "MyNFT",
  "sourceName": "contracts/MyNFT.sol",
  "abi": [
    {
      "inputs": [],
      "stateMutability": "nonpayable",
      "type": "constructor"
    },
    {
      "inputs": [
        {
          "internalType": "address",
          "name": "sender",
          "type": "address"
        },
        {
          "internalType": "uint256",
          "name": "tokenId",
          "type": "uint256"
        },
        {
          "internalType": "address",
          "name": "owner",
          "type": "address"
        }
      ],
      "name": "ERC721IncorrectOwner",
      "type": "error"
    },
    {
      "inputs": [
        {
          "internalType": "address",
          "name": "operator",
          "type": "address"
        },
        {
          "internalType": "uint256",
          "name": "tokenId",
          "type": "uint256"
        }
      ],
      "name": "ERC721InsufficientApproval",
      "type": "error"
    },
    {
      "inputs": [
        {
          "internalType": "address",
          "name": "approver",
          "type": "address"
        }
      ],
      "name": "ERC721InvalidApprover",
      "type": "error"
    },
    {
      "inputs": [
        {
          "internalType": "address",
          "name": "operator",
          "type": "address"
        }
      ],
      "name": "ERC721InvalidOperator",
      "type": "error"
    },
    {
      "inputs": [
        {
          "internalType": "address",
          "name": "owner",
          "type": "address"
        }
      ],
      "name": "ERC721InvalidOwner",
      "type": "error"
    },
    {
      "inputs": [
        {
          "internalType": "address",
          "name": "receiver",
          "type": "address"
        }
      ],
      "name": "ERC721InvalidReceiver",
      "type": "error"
    },
    {
      "inputs": [
        {
          "internalType": "address",
          "name": "sender",
          "type": "address"
        }
      ],
      "name": "ERC721InvalidSender",
      "type": "error"
    },
    {
      "inputs": [
        {
          "internalType": "uint256",
          "name": "tokenId",
          "type": "uint256"
        }
      ],
      "name": "ERC721NonexistentToken",
      "type": "error"
    },
    {
      "inputs": [
        {
          "internalType": "address",
          "name": "owner",
          "type": "address"
        }
      ],
      "name": "OwnableInvalidOwner",
      "type": "error"
    },
    {
      "inputs": [
        {
          "internalType": "address",
          "name": "account",
          "type": "address"
        }
      ],
      "name": "OwnableUnauthorizedAccount",
      "type": "error"
    },
    {
      "anonymous": false,
      "inputs": [
        {
          "indexed": true,
          "internalType": "address",
          "name": "owner",
          "type": "address"
        },
        {
          "indexed": true,
          "internalType": "address",
          "name": "approved",
          "type": "address"
        },
        {
          "indexed": true,
          "internalType": "uint256",
          "name": "tokenId",
          "type": "uint256"
        }
      ],
      "name": "Approval",
      "type": "event"
    },
    {
      "anonymous": false,
      "inputs": [
        {
          "indexed": true,
          "internalType": "address",
          "name": "owner",
          "type": "address"
        },
        {
          "indexed": true,
          "internalType": "address",
          "name": "operator",
          "type": "address"
        },
        {
          "indexed": false,
          "internalType": "bool",
          "name": "approved",
          "type": "bool"
        }
      ],
      "name": "ApprovalForAll",
      "type": "event"
    },
    {
      "anonymous": false,
      "inputs": [
        {
          "indexed": true,
          "internalType": "address",
          "name": "previousOwner",
          "type": "address"
        },
        {
          "indexed": true,
          "internalType": "address",
          "name": "newOwner",
          "type": "address"
        }
      ],
      "name": "OwnershipTransferred",
      "type": "event"
    },
    {
      "anonymous": false,
      "inputs": [
        {
          "indexed": true,
          "internalType": "address",
          "name": "from",
          "type": "address"
        },
        {
          "indexed": true,
          "internalType": "address",
          "name": "to",
          "type": "address"
        },
        {
          "indexed": true,
          "internalType": "uint256",
          "name": "tokenId",
          "type": "uint256"
        }
      ],
      "name": "Transfer",
      "type": "event"
    },
    {
      "inputs": [
        {
          "internalType": "address",
          "name": "to",
          "type": "address"
        },
        {
          "internalType": "uint256",
          "name": "tokenId",
          "type": "uint256"
        }
      ],
      "name": "approve",
      "outputs": [],
      "stateMutability": "nonpayable",
      "type": "function"
    },
    {
      "inputs": [
        {
          "internalType": "address",
          "name": "owner",
          "type": "address"
        }
      ],
      "name": "balanceOf",
      "outputs": [
        {
          "internalType": "uint256",
          "name": "",
          "type": "uint256"
        }
      ],
      "stateMutability": "view",
      "type": "function"
    },
    {
      "inputs": [
        {
          "internalType": "uint256",
          "name": "tokenId",
          "type": "uint256"
        }
      ],
      "name": "burn",
      "outputs": [],
      "stateMutability": "nonpayable",
      "type": "function"
    },
    {
      "inputs": [
        {
          "internalType": "uint256",
          "name": "tokenId",
          "type": "uint256"
        }
      ],
      "name": "getApproved",
      "outputs": [
        {
          "internalType": "address",
          "name": "",
          "type": "address"
        }
      ],
      "stateMutability": "view",
      "type": "function"
    },
    {
      "inputs": [
        {
          "internalType": "address",
          "name": "owner",
          "type": "address"
        },
        {
          "internalType": "address",
          "name": "operator",
          "type": "address"
        }
      ],
      "name": "isApprovedForAll",
      "outputs": [
        {
          "internalType": "bool",
          "name": "",
          "type": "bool"
        }
      ],
      "stateMutability": "view",
      "type": "function"
    },
    {
      "inputs": [
        {
          "internalType": "address",
          "name": "to",
          "type": "address"
        }
      ],
      "name": "mint",
      "outputs": [
        {
          "internalType": "uint256",
          "name": "",
          "type": "uint256"
        }
      ],
      "stateMutability": "nonpayable",
      "type": "function"
    },
    {
      "inputs": [],
      "name": "name",
      "outputs": [
        {
          "internalType": "string",
          "name": "",
          "type": "string"
        }
      ],
      "stateMutability": "view",
      "type": "function"
    },
    {
      "inputs": [],
      "name": "owner",
      "outputs": [
        {
          "internalType": "address",
          "name": "",
          "type": "address"
        }
      ],
      "stateMutability": "view",
      "type": "function"
    },
    {
      "inputs": [
        {
          "internalType": "uint256",
          "name": "tokenId",
          "type": "uint256"
        }
      ],
      "name": "ownerOf",
      "outputs": [
        {
          "internalType": "address",
          "name": "",
          "type": "address"
        }
      ],
      "stateMutability": "view",
      "type": "function"
    },
    {
      "inputs": [],
      "name": "renounceOwnership",
      "outputs": [],
      "stateMutability": "nonpayable",
      "type": "function"
    },
    {
      "inputs": [
        {
          "internalType": "address",
          "name": "from",
          "type": "address"
        },
        {
          "internalType": "address",
          "name": "to",
          "type": "address"
        },
        {
          "internalType": "uint256",
          "name": "tokenId",
          "type": "uint256"
        }
      ],
      "name": "safeTransferFrom",
      "outputs": [],
      "stateMutability": "nonpayable",
      "type": "function"
    },
    {
      "inputs": [
        {
          "internalType": "address",
          "name": "from",
          "type": "address"
        },
        {
          "internalType": "address",
          "name": "to",
          "type": "address"
        },
        {
          "internalType": "uint256",
          "name": "tokenId",
          "type": "uint256"
        },
        {
          "internalType": "bytes",
          "name": "data",
          "type": "bytes"
        }
      ],
      "name": "safeTransferFrom",
      "outputs": [],
      "stateMutability": "nonpayable",
      "type": "function"
    },
    {
      "inputs": [
        {
          "internalType": "address",
          "name": "operator",
          "type": "address"
        },
        {
          "internalType": "bool",
          "name": "approved",
          "type": "bool"
        }
      ],
      "name": "setApprovalForAll",
      "outputs": [],
      "stateMutability": "nonpayable",
      "type": "function"
    },
    {
      "inputs": [
        {
          "internalType": "bytes4",
          "name": "interfaceId",
          "type": "bytes4"
        }
      ],
      "name": "supportsInterface",
      "outputs": [
        {
          "internalType": "bool",
          "name": "",
          "type": "bool"
        }
      ],
      "stateMutability": "view",
      "type": "function"
    },
    {
      "inputs": [],
      "name": "symbol",
      "outputs": [
        {
          "internalType": "string",
          "name": "",
          "type": "string"
        }
      ],
      "stateMutability": "view",
      "type": "function"
    },
    {
      "inputs": [
        {
          "internalType": "uint256",
          "name": "tokenId",
          "type": "uint256"
        }
      ],
      "name": "tokenURI",
      "outputs": [
        {
          "internalType": "string",
          "name": "",
          "type": "string"
        }
      ],
      "stateMutability": "view",
      "type": "function"
    },
    {
      "inputs": [
        {
          "internalType": "address",
          "name": "from",
          "type": "address"
        },
        {
          "internalType": "address",
          "name": "to",
          "type": "address"
        },
        {
          "internalType": "uint256",
          "name": "tokenId",
          "type": "uint256"
        }
      ],
      "name": "transferFrom",
      "outputs": [],
      "stateMutability": "nonpayable",
      "type": "function"
    },
    {
      "inputs": [
        {
          "internalType": "address",
          "name": "newOwner",
          "type": "address"
        }
      ],
      "name": "transferOwnership",
      "outputs": [],
      "stateMutability": "nonpayable",
      "type": "function"
    }
  ],
  "bytecode": "0x608060405234801561001057600080fd5b503360405180604001604052806005815260200164135e53919560da1b815250604051806040016040528060048152602001631353919560e21b815250816000908161005c919061019a565b506001610069828261019a565b5050506001600160a01b03811661009a57604051631e4fbdf760e01b81526000600482015260240160405180910390fd5b6100a3816100a9565b50610258565b600680546001600160a01b038381166001600160a01b0319831681179093556040519116919082907f8be0079c531659141344cd1fd0a4f28419497f9722a3daafe3b4186f6b6457e090600090a35050565b634e487b7160e01b600052604160045260246000fd5b600181811c9082168061012557607f821691505b60208210810361014557634e487b7160e01b600052602260045260246000fd5b50919050565b601f82111561019557806000526020600020601f840160051c810160208510156101725750805b601f840160051c820191505b81811015610192576000815560010161017e565b50505b505050565b81516001600160401b038111156101b3576101b36100fb565b6101c7816101c18454610111565b8461014b565b6020601f8211600181146101fb57600083156101e35750848201515b600019600385901b1c1916600184901b178455610192565b600084815260208120601f198516915b8281101561022b578785015182556020948501946001909201910161020b565b50848210156102495786840151600019600387901b60f8161c191681555b50505050600190811b01905550565b611190806102676000396000f3fe608060405234801561001057600080fd5b50600436106101165760003560e01c806370a08231116100a2578063a22cb46511610071578063a22cb46514610239578063b88d4fde1461024c578063c87b56dd1461025f578063e985e9c514610272578063f2fde38b1461028557600080fd5b806370a0823114610205578063715018a6146102185780638da5cb5b1461022057806395d89b411461023157600080fd5b806323b872dd116100e957806323b872dd1461019857806342842e0e146101ab57806342966c68146101be5780636352211e146101d15780636a627842146101e457600080fd5b806301ffc9a71461011b57806306fdde0314610143578063081812fc14610158578063095ea7b314610183575b600080fd5b61012e610129366004610dd0565b610298565b60405190151581526020015b60405180910390f35b61014b6102ea565b60405161013a9190610e3d565b61016b610166366004610e50565b61037c565b6040516001600160a01b03909116815260200161013a565b610196610191366004610e85565b6103a5565b005b6101966101a6366004610eaf565b6103b4565b6101966101b9366004610eaf565b610444565b6101966101cc366004610e50565b610464565b61016b6101df366004610e50565b6104bc565b6101f76101f2366004610eec565b6104c7565b60405190815260200161013a565b6101f7610213366004610eec565b6104eb565b610196610533565b6006546001600160a01b031661016b565b61014b610547565b610196610247366004610f07565b610556565b61019661025a366004610f59565b610561565b61014b61026d366004610e50565b610579565b61012e61028036600461103d565b6105ee565b610196610293366004610eec565b61061c565b60006001600160e01b031982166380ac58cd60e01b14806102c957506001600160e01b03198216635b5e139f60e01b145b806102e457506301ffc9a760e01b6001600160e01b03198316145b92915050565b6060600080546102f990611070565b80601f016020809104026020016040519081016040528092919081815260200182805461032590611070565b80156103725780601f1061034757610100808354040283529160200191610372565b820191906000526020600020905b81548152906001019060200180831161035557829003601f168201915b5050505050905090565b600061038782610657565b506000828152600460205260409020546001600160a01b03166102e4565b6103b0828233610690565b5050565b6001600160a01b0382166103e357604051633250574960e11b8152600060048201526024015b60405180910390fd5b60006103f083833361069d565b9050836001600160a01b0316816001600160a01b03161461043e576040516364283d7b60e01b81526001600160a01b03808616600483015260248201849052821660448201526064016103da565b50505050565b61045f83838360405180602001604052806000815250610561565b505050565b3361046e826104bc565b6001600160a01b0316146104b05760405162461bcd60e51b81526020600482015260096024820152682737ba1037bbb732b960b91b60448201526064016103da565b6104b981610796565b50565b60006102e482610657565b60078054600091829190826104db836110aa565b9190505590506102e483826107d1565b60006001600160a01b038216610517576040516322718ad960e21b8152600060048201526024016103da565b506001600160a01b031660009081526003602052604090205490565b61053b610836565b6105456000610863565b565b6060600180546102f990611070565b6103b03383836108b5565b61056c8484846103b4565b61043e3385858585610954565b606061058482610657565b50600061059c60408051602081019091526000815290565b905060008151116105bc57604051806020016040528060008152506105e7565b806105c684610a7f565b6040516020016105d79291906110d1565b6040516020818303038152906040525b9392505050565b6001600160a01b03918216600090815260056020908152604080832093909416825291909152205460ff1690565b610624610836565b6001600160a01b03811661064e57604051631e4fbdf760e01b8152600060048201526024016103da565b6104b981610863565b6000818152600260205260408120546001600160a01b0316806102e457604051637e27328960e01b8152600481018490526024016103da565b61045f8383836001610b12565b6000828152600260205260408120546001600160a01b03908116908316156106ca576106ca818486610c18565b6001600160a01b03811615610708576106e7600085600080610b12565b6001600160a01b038116600090815260036020526040902080546000190190555b6001600160a01b03851615610737576001600160a01b0385166000908152600360205260409020805460010190555b60008481526002602052604080822080546001600160a01b0319166001600160a01b0389811691821790925591518793918516917fddf252ad1be2c89b69c2b068fc378daa952ba7f163c4a11628f55a4df523b3ef91a4949350505050565b60006107a5600083600061069d565b90506001600160a01b0381166103b057604051637e27328960e01b8152600481018390526024016103da565b6001600160a01b0382166107fb57604051633250574960e11b8152600060048201526024016103da565b60006108098383600061069d565b90506001600160a01b0381161561045f576040516339e3563760e11b8152600060048201526024016103da565b6006546001600160a01b031633146105455760405163118cdaa760e01b81523360048201526024016103da565b600680546001600160a01b038381166001600160a01b0319831681179093556040519116919082907f8be0079c531659141344cd1fd0a4f28419497f9722a3daafe3b4186f6b6457e090600090a35050565b6001600160a01b0382166108e757604051630b61174360e31b81526001600160a01b03831660048201526024016103da565b6001600160a01b03838116600081815260056020908152604080832094871680845294825291829020805460ff191686151590811790915591519182527f17307eab39ab6107e8899845ad3d59bd9653f200f220920489ca2b5937696c31910160405180910390a3505050565b6001600160a01b0383163b15610a7857604051630a85bd0160e11b81526001600160a01b0384169063150b7a0290610996908890889087908790600401611100565b6020604051808303816000875af19250505080156109d1575060408051601f3d908101601f191682019092526109ce9181019061113d565b60015b610a3a573d8080156109ff576040519150601f19603f3d011682016040523d82523d6000602084013e610a04565b606091505b508051600003610a3257604051633250574960e11b81526001600160a01b03851660048201526024016103da565b805160208201fd5b6001600160e01b03198116630a85bd0160e11b14610a7657604051633250574960e11b81526001600160a01b03851660048201526024016103da565b505b5050505050565b60606000610a8c83610c7c565b600101905060008167ffffffffffffffff811115610aac57610aac610f43565b6040519080825280601f01601f191660200182016040528015610ad6576020820181803683370190505b5090508181016020015b600019016f181899199a1a9b1b9c1cb0b131b232b360811b600a86061a8153600a8504945084610ae057509392505050565b8080610b2657506001600160a01b03821615155b15610be8576000610b3684610657565b90506001600160a01b03831615801590610b625750826001600160a01b0316816001600160a01b031614155b8015610b755750610b7381846105ee565b155b15610b9e5760405163a9fbf51f60e01b81526001600160a01b03841660048201526024016103da565b8115610be65783856001600160a01b0316826001600160a01b03167f8c5be1e5ebec7d5bd14f71427d1e84f3dd0314c0f7b2291e5b200ac8c7c3b92560405160405180910390a45b505b5050600090815260046020526040902080546001600160a01b0319166001600160a01b0392909216919091179055565b610c23838383610d54565b61045f576001600160a01b038316610c5157604051637e27328960e01b8152600481018290526024016103da565b60405163177e802f60e01b81526001600160a01b0383166004820152602481018290526044016103da565b60008072184f03e93ff9f4daa797ed6e38ed64bf6a1f0160401b8310610cbb5772184f03e93ff9f4daa797ed6e38ed64bf6a1f0160401b830492506040015b6d04ee2d6d415b85acef81000000008310610ce7576d04ee2d6d415b85acef8100000000830492506020015b662386f26fc100008310610d0557662386f26fc10000830492506010015b6305f5e1008310610d1d576305f5e100830492506008015b6127108310610d3157612710830492506004015b60648310610d43576064830492506002015b600a83106102e45760010192915050565b60006001600160a01b03831615801590610db25750826001600160a01b0316846001600160a01b03161480610d8e5750610d8e84846105ee565b80610db257506000828152600460205260409020546001600160a01b038481169116145b949350505050565b6001600160e01b0319811681146104b957600080fd5b600060208284031215610de257600080fd5b81356105e781610dba565b60005b83811015610e08578181015183820152602001610df0565b50506000910152565b60008151808452610e29816020860160208601610ded565b601f01601f19169290920160200192915050565b6020815260006105e76020830184610e11565b600060208284031215610e6257600080fd5b5035919050565b80356001600160a01b0381168114610e8057600080fd5b919050565b60008060408385031215610e9857600080fd5b610ea183610e69565b946020939093013593505050565b600080600060608486031215610ec457600080fd5b610ecd84610e69565b9250610edb60208501610e69565b929592945050506040919091013590565b600060208284031215610efe57600080fd5b6105e782610e69565b60008060408385031215610f1a57600080fd5b610f2383610e69565b915060208301358015158114610f3857600080fd5b809150509250929050565b634e487b7160e01b600052604160045260246000fd5b60008060008060808587031215610f6f57600080fd5b610f7885610e69565b9350610f8660208601610e69565b925060408501359150606085013567ffffffffffffffff811115610fa957600080fd5b8501601f81018713610fba57600080fd5b803567ffffffffffffffff811115610fd457610fd4610f43565b604051601f8201601f19908116603f0116810167ffffffffffffffff8111828210171561100357611003610f43565b60405281815282820160200189101561101b57600080fd5b8160208401602083013760006020838301015280935050505092959194509250565b6000806040838503121561105057600080fd5b61105983610e69565b915061106760208401610e69565b90509250929050565b600181811c9082168061108457607f821691505b6020821081036110a457634e487b7160e01b600052602260045260246000fd5b50919050565b6000600182016110ca57634e487b7160e01b600052601160045260246000fd5b5060010190565b600083516110e3818460208801610ded565b8351908301906110f7818360208801610ded565b01949350505050565b6001600160a01b038581168252841660208201526040810183905260806060820181905260009061113390830184610e11565b9695505050505050565b60006020828403121561114f57600080fd5b81516105e781610dba56fea2646970667358221220fb5a256bff6bd1d0abcbf0cdf020e0323fd5dce243aa0335a7283d0757edcf1f64736f6c634300081c0033",
  "linkReferences": {},
  "deployedLinkReferences": {}
}