{
  "_format": "hh-sol-artifact-1",
  "contractName": "AuctionV2",
  "sourceName": "contracts/AuctionV2.sol",
  "abi": [
    {
      "inputs": [
        {
          "internalType": "address",
          "name": "target",
          "type": "address"
        }
      ],
      "name": "AddressEmptyCode",
      "type": "error"
    },
    {
      "inputs": [
        {
          "internalType": "address",
          "name": "implementation",
          "type": "address"
        }
      ],
      "name": "ERC1967InvalidImplementation",
      "type": "error"
    },
    {
      "inputs": [],
      "name": "ERC1967NonPayable",
      "type": "error"
    },
    {
      "inputs": [],
      "name": "FailedCall",
      "type": "error"
    },
    {
      "inputs": [],
      "name": "InvalidInitialization",
      "type": "error"
    },
    {
      "inputs": [],
      "name": "NotInitializing",
      "type": "error"
    },
    {
      "inputs": [
        {
          "internalType": "address",
          "name": "owner",
          "type": "address"
        }
      ],
      "name": "OwnableInvalidOwner",
      "type": "error"
    },
    {
      "inputs": [
        {
          "internalType": "address",
          "name": "account",
          "type": "address"
        }
      ],
      "name": "OwnableUnauthorizedAccount",
      "type": "error"
    },
    {
      "inputs": [],
      "name": "UUPSUnauthorizedCallContext",
      "type": "error"
    },
    {
      "inputs": [
        {
          "internalType": "bytes32",
          "name": "slot",
          "type": "bytes32"
        }
      ],
      "name": "UUPSUnsupportedProxiableUUID",
      "type": "error"
    },
    {
      "anonymous": false,
      "inputs": [
        {
          "indexed": true,
          "internalType": "uint256",
          "name": "auctionId",
          "type": "uint256"
        },
        {
          "indexed": true,
          "internalType": "uint256",
          "name": "tokenId",
          "type": "uint256"
        },
        {
          "indexed": true,
          "internalType": "address",
          "name": "seller",
          "type": "address"
        },
        {
          "indexed": false,
          "internalType": "uint256",
          "name": "startingPrice",
          "type": "uint256"
        },
        {
          "indexed": false,
          "internalType": "uint256",
          "name": "duration",
          "type": "uint256"
        }
      ],
      "name": "AuctionCreated",
      "type": "event"
    },
    {
      "anonymous": false,
      "inputs": [
        {
          "indexed": true,
          "internalType": "uint256",
          "name": "auctionId",
          "type": "uint256"
        },
        {
          "indexed": false,
          "internalType": "address",
          "name": "winner",
          "type": "address"
        },
        {
          "indexed": false,
          "internalType": "uint256",
          "name": "finalPrice",
          "type": "uint256"
        }
      ],
      "name": "AuctionEnded",
      "type": "event"
    },
    {
      "anonymous": false,
      "inputs": [
        {
          "indexed": false,
          "internalType": "uint64",
          "name": "version",
          "type": "uint64"
        }
      ],
      "name": "Initialized",
      "type": "event"
    },
    {
      "anonymous": false,
      "inputs": [
        {
          "indexed": true,
          "internalType": "uint256",
          "name": "auctionId",
          "type": "uint256"
        },
        {
          "indexed": true,
          "internalType": "address",
          "name": "bidder",
          "type": "address"
        },
        {
          "indexed": false,
          "internalType": "uint256",
          "name": "amount",
          "type": "uint256"
        }
      ],
      "name": "NewBid",
      "type": "event"
    },
    {
      "anonymous": false,
      "inputs": [
        {
          "indexed": true,
          "internalType": "address",
          "name": "previousOwner",
          "type": "address"
        },
        {
          "indexed": true,
          "internalType": "address",
          "name": "newOwner",
          "type": "address"
        }
      ],
      "name": "OwnershipTransferred",
      "type": "event"
    },
    {
      "anonymous": false,
      "inputs": [
        {
          "indexed": true,
          "internalType": "address",
          "name": "implementation",
          "type": "address"
        }
      ],
      "name": "Upgraded",
      "type": "event"
    },
    {
      "inputs": [],
      "name": "UPGRADE_INTERFACE_VERSION",
      "outputs": [
        {
          "internalType": "string",
          "name": "",
          "type": "string"
        }
      ],
      "stateMutability": "view",
      "type": "function"
    },
    {
      "inputs": [
        {
          "internalType": "uint256",
          "name": "",
          "type": "uint256"
        }
      ],
      "name": "auctions",
      "outputs": [
        {
          "internalType": "uint256",
          "name": "id",
          "type": "uint256"
        },
        {
          "internalType": "uint256",
          "name": "tokenId",
          "type": "uint256"
        },
        {
          "internalType": "address",
          "name": "seller",
          "type": "address"
        },
        {
          "internalType": "address",
          "name": "highestBidder",
          "type": "address"
        },
        {
          "internalType": "uint256",
          "name": "startingPrice",
          "type": "uint256"
        },
        {
          "internalType": "uint256",
          "name": "highestBid",
          "type": "uint256"
        },
        {
          "internalType": "uint256",
          "name": "startTime",
          "type": "uint256"
        },
        {
          "internalType": "uint256",
          "name": "endTime",
          "type": "uint256"
        },
        {
          "internalType": "bool",
          "name": "ended",
          "type": "bool"
        },
        {
          "internalType": "uint256",
          "name": "minBidIncrement",
          "type": "uint256"
        },
        {
          "internalType": "address",
          "name": "paymentToken",
          "type": "address"
        },
        {
          "internalType": "bool",
          "name": "canceled",
          "type": "bool"
        }
      ],
      "stateMutability": "view",
      "type": "function"
    },
    {
      "inputs": [
        {
          "internalType": "uint256",
          "name": "auctionId",
          "type": "uint256"
        },
        {
          "internalType": "uint256",
          "name": "amount",
          "type": "uint256"
        },
        {
          "internalType": "address",
          "name": "tokenAddress",
          "type": "address"
        }
      ],
      "name": "bidWithERC20",
      "outputs": [],
      "stateMutability": "nonpayable",
      "type": "function"
    },
    {
      "inputs": [
        {
          "internalType": "uint256",
          "name": "auctionId",
          "type": "uint256"
        }
      ],
      "name": "bidWithETH",
      "outputs": [],
      "stateMutability": "payable",
      "type": "function"
    },
    {
      "inputs": [
        {
          "internalType": "uint256",
          "name": "",
          "type": "uint256"
        },
        {
          "internalType": "uint256",
          "name": "",
          "type": "uint256"
        }
      ],
      "name": "bidders",
      "outputs": [
        {
          "internalType": "address",
          "name": "",
          "type": "address"
        }
      ],
      "stateMutability": "view",
      "type": "function"
    },
    {
      "inputs": [
        {
          "internalType": "uint256",
          "name": "",
          "type": "uint256"
        },
        {
          "internalType": "address",
          "name": "",
          "type": "address"
        }
      ],
      "name": "bids",
      "outputs": [
        {
          "internalType": "uint256",
          "name": "",
          "type": "uint256"
        }
      ],
      "stateMutability": "view",
      "type": "function"
    },
    {
      "inputs": [
        {
          "internalType": "uint256",
          "name": "auctionId",
          "type": "uint256"
        }
      ],
      "name": "cancelAuction",
      "outputs": [],
      "stateMutability": "nonpayable",
      "type": "function"
    },
    {
      "inputs": [
        {
          "internalType": "uint256",
          "name": "tokenId",
          "type": "uint256"
        },
        {
          "internalType": "uint256",
          "name": "startingPrice",
          "type": "uint256"
        },
        {
          "internalType": "uint256",
          "name": "duration",
          "type": "uint256"
        }
      ],
      "name": "createAuction",
      "outputs": [],
      "stateMutability": "nonpayable",
      "type": "function"
    },
    {
      "inputs": [
        {
          "internalType": "uint256",
          "name": "auctionId",
          "type": "uint256"
        }
      ],
      "name": "endAuction",
      "outputs": [],
      "stateMutability": "nonpayable",
      "type": "function"
    },
    {
      "inputs": [],
      "name": "ethUsdPriceFeed",
      "outputs": [
        {
          "internalType": "address",
          "name": "",
          "type": "address"
        }
      ],
      "stateMutability": "view",
      "type": "function"
    },
    {
      "inputs": [
        {
          "internalType": "address",
          "name": "token",
          "type": "address"
        },
        {
          "internalType": "uint256",
          "name": "amount",
          "type": "uint256"
        }
      ],
      "name": "getUsdValue",
      "outputs": [
        {
          "internalType": "uint256",
          "name": "",
          "type": "uint256"
        }
      ],
      "stateMutability": "view",
      "type": "function"
    },
    {
      "inputs": [
        {
          "internalType": "address",
          "name": "_nftContract",
          "type": "address"
        }
      ],
      "name": "initialize",
      "outputs": [],
      "stateMutability": "nonpayable",
      "type": "function"
    },
    {
      "inputs": [
        {
          "internalType": "uint256",
          "name": "",
          "type": "uint256"
        }
      ],
      "name": "isTokenOnAuction",
      "outputs": [
        {
          "internalType": "bool",
          "name": "",
          "type": "bool"
        }
      ],
      "stateMutability": "view",
      "type": "function"
    },
    {
      "inputs": [],
      "name": "nftContract",
      "outputs": [
        {
          "internalType": "contract IERC721",
          "name": "",
          "type": "address"
        }
      ],
      "stateMutability": "view",
      "type": "function"
    },
    {
      "inputs": [],
      "name": "owner",
      "outputs": [
        {
          "internalType": "address",
          "name": "",
          "type": "address"
        }
      ],
      "stateMutability": "view",
      "type": "function"
    },
    {
      "inputs": [
        {
          "internalType": "address",
          "name": "",
          "type": "address"
        }
      ],
      "name": "priceFeeds",
      "outputs": [
        {
          "internalType": "address",
          "name": "",
          "type": "address"
        }
      ],
      "stateMutability": "view",
      "type": "function"
    },
    {
      "inputs": [],
      "name": "proxiableUUID",
      "outputs": [
        {
          "internalType": "bytes32",
          "name": "",
          "type": "bytes32"
        }
      ],
      "stateMutability": "view",
      "type": "function"
    },
    {
      "inputs": [],
      "name": "renounceOwnership",
      "outputs": [],
      "stateMutability": "nonpayable",
      "type": "function"
    },
    {
      "inputs": [
        {
          "internalType": "uint256",
          "name": "auctionId",
          "type": "uint256"
        }
      ],
      "name": "setAuctionEndTime",
      "outputs": [],
      "stateMutability": "nonpayable",
      "type": "function"
    },
    {
      "inputs": [
        {
          "internalType": "uint256",
          "name": "auctionId",
          "type": "uint256"
        },
        {
          "internalType": "bool",
          "name": "ended",
          "type": "bool"
        }
      ],
      "name": "setAuctionEnded",
      "outputs": [],
      "stateMutability": "nonpayable",
      "type": "function"
    },
    {
      "inputs": [
        {
          "internalType": "address",
          "name": "priceFeed",
          "type": "address"
        }
      ],
      "name": "setEthPriceFeed",
      "outputs": [],
      "stateMutability": "nonpayable",
      "type": "function"
    },
    {
      "inputs": [
        {
          "internalType": "address",
          "name": "token",
          "type": "address"
        },
        {
          "internalType": "address",
          "name": "priceFeed",
          "type": "address"
        }
      ],
      "name": "setPriceFeed",
      "outputs": [],
      "stateMutability": "nonpayable",
      "type": "function"
    },
    {
      "inputs": [
        {
          "internalType": "uint256",
          "name": "",
          "type": "uint256"
        }
      ],
      "name": "tokenIdToAuctionId",
      "outputs": [
        {
          "internalType": "uint256",
          "name": "",
          "type": "uint256"
        }
      ],
      "stateMutability": "view",
      "type": "function"
    },
    {
      "inputs": [
        {
          "internalType": "address",
          "name": "newOwner",
          "type": "address"
        }
      ],
      "name": "transferOwnership",
      "outputs": [],
      "stateMutability": "nonpayable",
      "type": "function"
    },
    {
      "inputs": [
        {
          "internalType": "address",
          "name": "newImplementation",
          "type": "address"
        },
        {
          "internalType": "bytes",
          "name": "data",
          "type": "bytes"
        }
      ],
      "name": "upgradeToAndCall",
      "outputs": [],
      "stateMutability": "payable",
      "type": "function"
    }
  ],
  "bytecode": "0x60a060405230608052348015601357600080fd5b506080516123ea61003d600039600081816119340152818161195d0152611a9e01526123ea6000f3fe6080604052600436106101665760003560e01c806396b5a755116100d1578063c4d66de81161008a578063d1c1120511610064578063d1c11205146105d0578063d56d229d146105f0578063dfab9d1c14610610578063f2fde38b1461065057600080fd5b8063c4d66de814610570578063c660d11214610590578063cda4beef146105b057600080fd5b806396b5a7551461046c5780639dcb511a1461048c578063ac9ad632146104c2578063ad3cb1cc146104d5578063b9a2de3a14610513578063c011c9eb1461053357600080fd5b806352d1902d1161012357806352d1902d1461028e578063571a26a0146102a357806368e845551461039f578063715018a6146103d157806376e11286146103e65780638da5cb5b1461042f57600080fd5b806308a666f31461016b5780632dd4a5481461018d57806339396c97146101cd5780633f1ffcec1461020b57806342f6fb29146102435780634f1ef2861461027b575b600080fd5b34801561017757600080fd5b5061018b610186366004611e1d565b610670565b005b34801561019957600080fd5b506101ba6101a8366004611e56565b60026020526000908152604090205481565b6040519081526020015b60405180910390f35b3480156101d957600080fd5b5061018b6101e8366004611e7d565b600091825260208290526040909120600801805460ff1916911515919091179055565b34801561021757600080fd5b506101ba610226366004611ead565b600460209081526000928352604080842090915290825290205481565b34801561024f57600080fd5b50600654610263906001600160a01b031681565b6040516001600160a01b0390911681526020016101c4565b61018b610289366004611ee8565b610966565b34801561029a57600080fd5b506101ba610985565b3480156102af57600080fd5b506103336102be366004611e56565b600060208190529081526040902080546001820154600283015460038401546004850154600586015460068701546007880154600889015460098a0154600a909a0154989997986001600160a01b039788169896881697959694959394929360ff928316939290821691600160a01b9004168c565b604080519c8d5260208d019b909b526001600160a01b03998a169a8c019a909a5296881660608b015260808a019590955260a089019390935260c088019190915260e08701521515610100860152610120850152166101408301521515610160820152610180016101c4565b3480156103ab57600080fd5b5061018b6103ba366004611e56565b600090815260208190526040902042600790910155565b3480156103dd57600080fd5b5061018b6109a2565b3480156103f257600080fd5b5061018b610401366004611fb4565b6001600160a01b03918216600090815260056020526040902080546001600160a01b03191691909216179055565b34801561043b57600080fd5b507f9016d09d72d40fdae2fd8ceac6b6234c7706214fd39c1cd1e609a0528c199300546001600160a01b0316610263565b34801561047857600080fd5b5061018b610487366004611e56565b6109b6565b34801561049857600080fd5b506102636104a7366004611fe2565b6005602052600090815260409020546001600160a01b031681565b61018b6104d0366004611e56565b610b8a565b3480156104e157600080fd5b50610506604051806040016040528060058152602001640352e302e360dc1b81525081565b6040516101c49190612023565b34801561051f57600080fd5b5061018b61052e366004611e56565b610dab565b34801561053f57600080fd5b5061018b61054e366004611fe2565b600680546001600160a01b0319166001600160a01b0392909216919091179055565b34801561057c57600080fd5b5061018b61058b366004611fe2565b6110c2565b34801561059c57600080fd5b506101ba6105ab366004612056565b611203565b3480156105bc57600080fd5b5061018b6105cb366004612082565b6113f0565b3480156105dc57600080fd5b506102636105eb3660046120ae565b6117f1565b3480156105fc57600080fd5b50600854610263906001600160a01b031681565b34801561061c57600080fd5b5061064061062b366004611e56565b60016020526000908152604090205460ff1681565b60405190151581526020016101c4565b34801561065c57600080fd5b5061018b61066b366004611fe2565b611829565b600083815260208190526040902060038101546005820154600a83015460088401546001600160a01b03938416939091169060ff16156106cb5760405162461bcd60e51b81526004016106c2906120d0565b60405180910390fd5b836007015442106107105760405162461bcd60e51b815260206004820152600f60248201526e105d58dd1a5bdb88195e1c1a5c9959608a1b60448201526064016106c2565b60028401546001600160a01b031633036107605760405162461bcd60e51b815260206004820152601160248201527014d95b1b195c8818d85b9b9bdd08189a59607a1b60448201526064016106c2565b83600401548610156107a25760405162461bcd60e51b815260206004820152600b60248201526a42696420746f6f206c6f7760a81b60448201526064016106c2565b6001600160a01b0385166107f05760405162461bcd60e51b8152602060048201526015602482015274496e76616c696420746f6b656e206164647265737360581b60448201526064016106c2565b6001600160a01b0383161561086557600061080b8284611203565b905060006108198789611203565b90508181116108625760405162461bcd60e51b8152602060048201526015602482015274426964205553442076616c756520746f6f206c6f7760581b60448201526064016106c2565b50505b6040516323b872dd60e01b81526001600160a01b038616906323b872dd9061089590339030908b906004016120ff565b6020604051808303816000875af11580156108b4573d6000803e3d6000fd5b505050506040513d601f19601f820116820180604052508101906108d89190612123565b506001600160a01b038316156108f3576108f3838383611867565b600384018054336001600160a01b0319918216811790925560058601889055600a860180549091166001600160a01b03881617905560405187815288907f558a0d5d5468d74b0db24c74eb348b42271c2ebb4c9e953ced38aaed95fa43619060200160405180910390a350505050505050565b61096e611929565b610977826119ce565b61098182826119d6565b5050565b600061098f611a93565b5060008051602061239583398151915290565b6109aa611adc565b6109b46000611b37565b565b600081815260208190526040902060028101546001600160a01b03163314610a195760405162461bcd60e51b815260206004820152601660248201527513db9b1e481cd95b1b195c8818d85b8818d85b98d95b60521b60448201526064016106c2565b600881015460ff1615610a3e5760405162461bcd60e51b81526004016106c2906120d0565b60038101546001600160a01b031615610a995760405162461bcd60e51b815260206004820152601e60248201527f43616e6e6f742063616e63656c2077697468206163746976652062696473000060448201526064016106c2565b600a8101805460ff60a01b1916600160a01b1790556008808201805460ff1990811660019081179092558382018054600090815260209390935260409283902080549092169091559154600284015492549151632142170760e11b81526001600160a01b03918216936342842e0e93610b199330939216916004016120ff565b600060405180830381600087803b158015610b3357600080fd5b505af1158015610b47573d6000803e3d6000fd5b505060408051600080825260208201528593507fd2aa34a4fdbbc6dff6a3e56f46e0f3ae2a31d7785ff3487aa5c95c642acea50192500160405180910390a25050565b600081815260208190526040902060038101546005820154600a83015460088401546001600160a01b03938416939091169060ff1615610bdc5760405162461bcd60e51b81526004016106c2906120d0565b83600701544210610c215760405162461bcd60e51b815260206004820152600f60248201526e105d58dd1a5bdb88195e1c1a5c9959608a1b60448201526064016106c2565b60028401546001600160a01b03163303610c715760405162461bcd60e51b815260206004820152601160248201527014d95b1b195c8818d85b9b9bdd08189a59607a1b60448201526064016106c2565b8360040154341015610cb35760405162461bcd60e51b815260206004820152600b60248201526a42696420746f6f206c6f7760a81b60448201526064016106c2565b6001600160a01b03831615610d29576000610cce8284611203565b90506000610cdd600034611203565b9050818111610d265760405162461bcd60e51b8152602060048201526015602482015274426964205553442076616c756520746f6f206c6f7760581b60448201526064016106c2565b50505b6001600160a01b03831615610d4357610d43838383611867565b600384018054336001600160a01b031991821681179092553460058701819055600a8701805490921690915560405190815286907f558a0d5d5468d74b0db24c74eb348b42271c2ebb4c9e953ced38aaed95fa43619060200160405180910390a35050505050565b6000818152602081905260409020600881015460ff1615610dde5760405162461bcd60e51b81526004016106c2906120d0565b8060070154421015610e2a5760405162461bcd60e51b8152602060048201526015602482015274105d58dd1a5bdb881b9bdd081e595d08195b991959605a1b60448201526064016106c2565b60028101546001600160a01b03163314610e865760405162461bcd60e51b815260206004820152601b60248201527f4f6e6c792073656c6c65722063616e20656e642061756374696f6e000000000060448201526064016106c2565b60018082015460028301546005840154600a850154600386015460088701805460ff19908116881790915560008681526020979097526040909620805490961690955592936001600160a01b039283169391929182169116801561100e576001600160a01b038216610f2e576040516001600160a01b0385169084156108fc029085906000818181858888f19350505050158015610f28573d6000803e3d6000fd5b50610fa3565b60405163a9059cbb60e01b81526001600160a01b0385811660048301526024820185905283169063a9059cbb906044016020604051808303816000875af1158015610f7d573d6000803e3d6000fd5b505050506040513d601f19601f82011682018060405250810190610fa19190612123565b505b600854604051632142170760e11b81526001600160a01b03909116906342842e0e90610fd790309085908a906004016120ff565b600060405180830381600087803b158015610ff157600080fd5b505af1158015611005573d6000803e3d6000fd5b50505050611075565b600854604051632142170760e11b81526001600160a01b03909116906342842e0e9061104290309088908a906004016120ff565b600060405180830381600087803b15801561105c57600080fd5b505af1158015611070573d6000803e3d6000fd5b505050505b604080516001600160a01b03831681526020810185905288917fd2aa34a4fdbbc6dff6a3e56f46e0f3ae2a31d7785ff3487aa5c95c642acea501910160405180910390a250505050505050565b60006110cc611ba8565b805490915060ff600160401b820416159067ffffffffffffffff166000811580156110f45750825b905060008267ffffffffffffffff1660011480156111115750303b155b90508115801561111f575080155b1561113d5760405163f92ee8a960e01b815260040160405180910390fd5b845467ffffffffffffffff19166001178555831561116757845460ff60401b1916600160401b1785555b61117033611bd1565b611178611be2565b600880546001600160a01b0388166001600160a01b0319918216179091556006805490911673694aa1769357215de4fac081bf1f309adc32530617905583156111fb57845460ff60401b19168555604051600181527fc7f505b2f371ae2175ee4913f4499e1f2633a7b5936321eed1cdaeb6115181d29060200160405180910390a15b505050505050565b6000806001600160a01b03841661122657506006546001600160a01b0316611243565b506001600160a01b03808416600090815260056020526040902054165b6001600160a01b0381166112995760405162461bcd60e51b815260206004820152601860248201527f50726963652066656564206e6f7420617661696c61626c65000000000000000060448201526064016106c2565b60008190506000816001600160a01b031663feaf968c6040518163ffffffff1660e01b815260040160a060405180830381865afa1580156112de573d6000803e3d6000fd5b505050506040513d601f19601f82011682018060405250810190611302919061215f565b505050915050600081136113585760405162461bcd60e51b815260206004820152601960248201527f496e76616c69642070726963652066726f6d206f7261636c650000000000000060448201526064016106c2565b6000826001600160a01b031663313ce5676040518163ffffffff1660e01b8152600401602060405180830381865afa158015611398573d6000803e3d6000fd5b505050506040513d601f19601f820116820180604052508101906113bc91906121b1565b905060006113ce60ff8316600a6122d1565b6113d884896122dd565b6113e291906122f4565b955050505050505b92915050565b60008381526001602052604090205460ff16156114485760405162461bcd60e51b815260206004820152601660248201527527232a1030b63932b0b23c9037b71030bab1ba34b7b760511b60448201526064016106c2565b600082116114a65760405162461bcd60e51b815260206004820152602560248201527f5374617274696e67207072696365206d75737420626520677265617465722074604482015264068616e20360dc1b60648201526084016106c2565b610e1081101580156114bb575062278d008111155b6114fa5760405162461bcd60e51b815260206004820152601060248201526f24b73b30b634b210323ab930ba34b7b760811b60448201526064016106c2565b6008546040516331a9108f60e11b81526004810185905233916001600160a01b031690636352211e90602401602060405180830381865afa158015611543573d6000803e3d6000fd5b505050506040513d601f19601f820116820180604052508101906115679190612316565b6001600160a01b0316146115ad5760405162461bcd60e51b815260206004820152600d60248201526c2737ba1027232a1037bbb732b960991b60448201526064016106c2565b6008546040516323b872dd60e01b81526001600160a01b03909116906323b872dd906115e1903390309088906004016120ff565b600060405180830381600087803b1580156115fb57600080fd5b505af115801561160f573d6000803e3d6000fd5b5050600780546000935091508261162583612333565b9190505590506000604051806101800160405280838152602001868152602001336001600160a01b0316815260200160006001600160a01b03168152602001858152602001600081526020014281526020018442611683919061234c565b815260006020808301829052662386f26fc1000060408085019190915260608085018490526080948501849052878452838352818420865181558684015160018281019190915587840151600280840180546001600160a01b039384166001600160a01b031991821617909155948a0151600385018054918416919096161790945596880151600483015560a0880151600583015560c0880151600683015560e0880151600783015561010088015160088301805491151560ff199283161790556101208901516009840155610140890151600a90930180546101608b01511515600160a01b026001600160a81b03199091169490991693909317979097179091558b8552808452828520805490961617909455929052819020849055519091503390869084907fc01e7da6ec06ecf5e1b887799549c755425a022ab59da72fa2d8c6255c10bc85906117e29089908990918252602082015260400190565b60405180910390a45050505050565b6003602052816000526040600020818154811061180d57600080fd5b6000918252602090912001546001600160a01b03169150829050565b611831611adc565b6001600160a01b03811661185b57604051631e4fbdf760e01b8152600060048201526024016106c2565b61186481611b37565b50565b6001600160a01b0381166118b1576040516001600160a01b0384169083156108fc029084906000818181858888f193505050501580156118ab573d6000803e3d6000fd5b50505050565b60405163a9059cbb60e01b81526001600160a01b0384811660048301526024820184905282169063a9059cbb906044016020604051808303816000875af1158015611900573d6000803e3d6000fd5b505050506040513d601f19601f820116820180604052508101906118ab9190612123565b505050565b306001600160a01b037f00000000000000000000000000000000000000000000000000000000000000001614806119b057507f00000000000000000000000000000000000000000000000000000000000000006001600160a01b03166119a4600080516020612395833981519152546001600160a01b031690565b6001600160a01b031614155b156109b45760405163703e46dd60e11b815260040160405180910390fd5b611864611adc565b816001600160a01b03166352d1902d6040518163ffffffff1660e01b8152600401602060405180830381865afa925050508015611a30575060408051601f3d908101601f19168201909252611a2d9181019061235f565b60015b611a5857604051634c9c8ce360e01b81526001600160a01b03831660048201526024016106c2565b6000805160206123958339815191528114611a8957604051632a87526960e21b8152600481018290526024016106c2565b6119248383611bea565b306001600160a01b037f000000000000000000000000000000000000000000000000000000000000000016146109b45760405163703e46dd60e11b815260040160405180910390fd5b33611b0e7f9016d09d72d40fdae2fd8ceac6b6234c7706214fd39c1cd1e609a0528c199300546001600160a01b031690565b6001600160a01b0316146109b45760405163118cdaa760e01b81523360048201526024016106c2565b7f9016d09d72d40fdae2fd8ceac6b6234c7706214fd39c1cd1e609a0528c19930080546001600160a01b031981166001600160a01b03848116918217845560405192169182907f8be0079c531659141344cd1fd0a4f28419497f9722a3daafe3b4186f6b6457e090600090a3505050565b6000807ff0c57e16840df040f15088dc2f81fe391c3923bec73e23a9662efc9c229c6a006113ea565b611bd9611c40565b61186481611c65565b6109b4611c40565b611bf382611c6d565b6040516001600160a01b038316907fbc7cd75a20ee27fd9adebab32041f755214dbc6bffa90cc0225b39da2e5c2d3b90600090a2805115611c38576119248282611cd2565b610981611d48565b611c48611d67565b6109b457604051631afcd79f60e31b815260040160405180910390fd5b611831611c40565b806001600160a01b03163b600003611ca357604051634c9c8ce360e01b81526001600160a01b03821660048201526024016106c2565b60008051602061239583398151915280546001600160a01b0319166001600160a01b0392909216919091179055565b6060600080846001600160a01b031684604051611cef9190612378565b600060405180830381855af49150503d8060008114611d2a576040519150601f19603f3d011682016040523d82523d6000602084013e611d2f565b606091505b5091509150611d3f858383611d81565b95945050505050565b34156109b45760405163b398979f60e01b815260040160405180910390fd5b6000611d71611ba8565b54600160401b900460ff16919050565b606082611d9657611d9182611de0565b611dd9565b8151158015611dad57506001600160a01b0384163b155b15611dd657604051639996b31560e01b81526001600160a01b03851660048201526024016106c2565b50805b9392505050565b805115611def57805160208201fd5b60405163d6bda27560e01b815260040160405180910390fd5b6001600160a01b038116811461186457600080fd5b600080600060608486031215611e3257600080fd5b83359250602084013591506040840135611e4b81611e08565b809150509250925092565b600060208284031215611e6857600080fd5b5035919050565b801515811461186457600080fd5b60008060408385031215611e9057600080fd5b823591506020830135611ea281611e6f565b809150509250929050565b60008060408385031215611ec057600080fd5b823591506020830135611ea281611e08565b634e487b7160e01b600052604160045260246000fd5b60008060408385031215611efb57600080fd5b8235611f0681611e08565b9150602083013567ffffffffffffffff811115611f2257600080fd5b8301601f81018513611f3357600080fd5b803567ffffffffffffffff811115611f4d57611f4d611ed2565b604051601f8201601f19908116603f0116810167ffffffffffffffff81118282101715611f7c57611f7c611ed2565b604052818152828201602001871015611f9457600080fd5b816020840160208301376000602083830101528093505050509250929050565b60008060408385031215611fc757600080fd5b8235611fd281611e08565b91506020830135611ea281611e08565b600060208284031215611ff457600080fd5b8135611dd981611e08565b60005b8381101561201a578181015183820152602001612002565b50506000910152565b6020815260008251806020840152612042816040850160208701611fff565b601f01601f19169190910160400192915050565b6000806040838503121561206957600080fd5b823561207481611e08565b946020939093013593505050565b60008060006060848603121561209757600080fd5b505081359360208301359350604090920135919050565b600080604083850312156120c157600080fd5b50508035926020909101359150565b602080825260159082015274105d58dd1a5bdb88185b1c9958591e48195b991959605a1b604082015260600190565b6001600160a01b039384168152919092166020820152604081019190915260600190565b60006020828403121561213557600080fd5b8151611dd981611e6f565b805169ffffffffffffffffffff8116811461215a57600080fd5b919050565b600080600080600060a0868803121561217757600080fd5b61218086612140565b602087015160408801516060890151929750909550935091506121a560808701612140565b90509295509295909350565b6000602082840312156121c357600080fd5b815160ff81168114611dd957600080fd5b634e487b7160e01b600052601160045260246000fd5b6001815b600184111561222557808504811115612209576122096121d4565b600184161561221757908102905b60019390931c9280026121ee565b935093915050565b60008261223c575060016113ea565b81612249575060006113ea565b816001811461225f576002811461226957612285565b60019150506113ea565b60ff84111561227a5761227a6121d4565b50506001821b6113ea565b5060208310610133831016604e8410600b84101617156122a8575081810a6113ea565b6122b560001984846121ea565b80600019048211156122c9576122c96121d4565b029392505050565b6000611dd9838361222d565b80820281158282048414176113ea576113ea6121d4565b60008261231157634e487b7160e01b600052601260045260246000fd5b500490565b60006020828403121561232857600080fd5b8151611dd981611e08565b600060018201612345576123456121d4565b5060010190565b808201808211156113ea576113ea6121d4565b60006020828403121561237157600080fd5b5051919050565b6000825161238a818460208701611fff565b919091019291505056fe360894a13ba1a3210667c828492db98dca3e2076cc3735a920a3ca505d382bbca2646970667358221220c376e23f3ba486769b21c9b73e4124aa8ffb3768a168d0a86bbde27417b8a67764736f6c634300081c0033",
  "linkReferences": {},
  "deployedLinkReferences": {}
}