{
  "_format": "hh-sol-artifact-1",
  "contractName": "Auction",
  "sourceName": "contracts/Auction.sol",
  "abi": [
    {
      "inputs": [
        {
          "internalType": "address",
          "name": "target",
          "type": "address"
        }
      ],
      "name": "AddressEmptyCode",
      "type": "error"
    },
    {
      "inputs": [
        {
          "internalType": "address",
          "name": "implementation",
          "type": "address"
        }
      ],
      "name": "ERC1967InvalidImplementation",
      "type": "error"
    },
    {
      "inputs": [],
      "name": "ERC1967NonPayable",
      "type": "error"
    },
    {
      "inputs": [],
      "name": "FailedCall",
      "type": "error"
    },
    {
      "inputs": [],
      "name": "InvalidInitialization",
      "type": "error"
    },
    {
      "inputs": [],
      "name": "NotInitializing",
      "type": "error"
    },
    {
      "inputs": [
        {
          "internalType": "address",
          "name": "owner",
          "type": "address"
        }
      ],
      "name": "OwnableInvalidOwner",
      "type": "error"
    },
    {
      "inputs": [
        {
          "internalType": "address",
          "name": "account",
          "type": "address"
        }
      ],
      "name": "OwnableUnauthorizedAccount",
      "type": "error"
    },
    {
      "inputs": [],
      "name": "UUPSUnauthorizedCallContext",
      "type": "error"
    },
    {
      "inputs": [
        {
          "internalType": "bytes32",
          "name": "slot",
          "type": "bytes32"
        }
      ],
      "name": "UUPSUnsupportedProxiableUUID",
      "type": "error"
    },
    {
      "anonymous": false,
      "inputs": [
        {
          "indexed": true,
          "internalType": "uint256",
          "name": "auctionId",
          "type": "uint256"
        },
        {
          "indexed": true,
          "internalType": "uint256",
          "name": "tokenId",
          "type": "uint256"
        },
        {
          "indexed": true,
          "internalType": "address",
          "name": "seller",
          "type": "address"
        },
        {
          "indexed": false,
          "internalType": "uint256",
          "name": "startingPrice",
          "type": "uint256"
        },
        {
          "indexed": false,
          "internalType": "uint256",
          "name": "duration",
          "type": "uint256"
        }
      ],
      "name": "AuctionCreated",
      "type": "event"
    },
    {
      "anonymous": false,
      "inputs": [
        {
          "indexed": true,
          "internalType": "uint256",
          "name": "auctionId",
          "type": "uint256"
        },
        {
          "indexed": false,
          "internalType": "address",
          "name": "winner",
          "type": "address"
        },
        {
          "indexed": false,
          "internalType": "uint256",
          "name": "finalPrice",
          "type": "uint256"
        }
      ],
      "name": "AuctionEnded",
      "type": "event"
    },
    {
      "anonymous": false,
      "inputs": [
        {
          "indexed": false,
          "internalType": "uint64",
          "name": "version",
          "type": "uint64"
        }
      ],
      "name": "Initialized",
      "type": "event"
    },
    {
      "anonymous": false,
      "inputs": [
        {
          "indexed": true,
          "internalType": "uint256",
          "name": "auctionId",
          "type": "uint256"
        },
        {
          "indexed": true,
          "internalType": "address",
          "name": "bidder",
          "type": "address"
        },
        {
          "indexed": false,
          "internalType": "uint256",
          "name": "amount",
          "type": "uint256"
        }
      ],
      "name": "NewBid",
      "type": "event"
    },
    {
      "anonymous": false,
      "inputs": [
        {
          "indexed": true,
          "internalType": "address",
          "name": "previousOwner",
          "type": "address"
        },
        {
          "indexed": true,
          "internalType": "address",
          "name": "newOwner",
          "type": "address"
        }
      ],
      "name": "OwnershipTransferred",
      "type": "event"
    },
    {
      "anonymous": false,
      "inputs": [
        {
          "indexed": true,
          "internalType": "address",
          "name": "implementation",
          "type": "address"
        }
      ],
      "name": "Upgraded",
      "type": "event"
    },
    {
      "inputs": [],
      "name": "UPGRADE_INTERFACE_VERSION",
      "outputs": [
        {
          "internalType": "string",
          "name": "",
          "type": "string"
        }
      ],
      "stateMutability": "view",
      "type": "function"
    },
    {
      "inputs": [
        {
          "internalType": "uint256",
          "name": "",
          "type": "uint256"
        }
      ],
      "name": "auctions",
      "outputs": [
        {
          "internalType": "uint256",
          "name": "id",
          "type": "uint256"
        },
        {
          "internalType": "uint256",
          "name": "tokenId",
          "type": "uint256"
        },
        {
          "internalType": "address",
          "name": "seller",
          "type": "address"
        },
        {
          "internalType": "address",
          "name": "highestBidder",
          "type": "address"
        },
        {
          "internalType": "uint256",
          "name": "startingPrice",
          "type": "uint256"
        },
        {
          "internalType": "uint256",
          "name": "highestBid",
          "type": "uint256"
        },
        {
          "internalType": "uint256",
          "name": "startTime",
          "type": "uint256"
        },
        {
          "internalType": "uint256",
          "name": "endTime",
          "type": "uint256"
        },
        {
          "internalType": "bool",
          "name": "ended",
          "type": "bool"
        },
        {
          "internalType": "uint256",
          "name": "minBidIncrement",
          "type": "uint256"
        },
        {
          "internalType": "address",
          "name": "paymentToken",
          "type": "address"
        },
        {
          "internalType": "bool",
          "name": "canceled",
          "type": "bool"
        }
      ],
      "stateMutability": "view",
      "type": "function"
    },
    {
      "inputs": [
        {
          "internalType": "uint256",
          "name": "auctionId",
          "type": "uint256"
        },
        {
          "internalType": "uint256",
          "name": "amount",
          "type": "uint256"
        },
        {
          "internalType": "address",
          "name": "tokenAddress",
          "type": "address"
        }
      ],
      "name": "bidWithERC20",
      "outputs": [],
      "stateMutability": "nonpayable",
      "type": "function"
    },
    {
      "inputs": [
        {
          "internalType": "uint256",
          "name": "auctionId",
          "type": "uint256"
        }
      ],
      "name": "bidWithETH",
      "outputs": [],
      "stateMutability": "payable",
      "type": "function"
    },
    {
      "inputs": [
        {
          "internalType": "uint256",
          "name": "",
          "type": "uint256"
        },
        {
          "internalType": "uint256",
          "name": "",
          "type": "uint256"
        }
      ],
      "name": "bidders",
      "outputs": [
        {
          "internalType": "address",
          "name": "",
          "type": "address"
        }
      ],
      "stateMutability": "view",
      "type": "function"
    },
    {
      "inputs": [
        {
          "internalType": "uint256",
          "name": "",
          "type": "uint256"
        },
        {
          "internalType": "address",
          "name": "",
          "type": "address"
        }
      ],
      "name": "bids",
      "outputs": [
        {
          "internalType": "uint256",
          "name": "",
          "type": "uint256"
        }
      ],
      "stateMutability": "view",
      "type": "function"
    },
    {
      "inputs": [
        {
          "internalType": "uint256",
          "name": "tokenId",
          "type": "uint256"
        },
        {
          "internalType": "uint256",
          "name": "startingPrice",
          "type": "uint256"
        },
        {
          "internalType": "uint256",
          "name": "duration",
          "type": "uint256"
        }
      ],
      "name": "createAuction",
      "outputs": [],
      "stateMutability": "nonpayable",
      "type": "function"
    },
    {
      "inputs": [
        {
          "internalType": "uint256",
          "name": "auctionId",
          "type": "uint256"
        }
      ],
      "name": "endAuction",
      "outputs": [],
      "stateMutability": "nonpayable",
      "type": "function"
    },
    {
      "inputs": [],
      "name": "ethUsdPriceFeed",
      "outputs": [
        {
          "internalType": "address",
          "name": "",
          "type": "address"
        }
      ],
      "stateMutability": "view",
      "type": "function"
    },
    {
      "inputs": [
        {
          "internalType": "address",
          "name": "token",
          "type": "address"
        },
        {
          "internalType": "uint256",
          "name": "amount",
          "type": "uint256"
        }
      ],
      "name": "getUsdValue",
      "outputs": [
        {
          "internalType": "uint256",
          "name": "",
          "type": "uint256"
        }
      ],
      "stateMutability": "view",
      "type": "function"
    },
    {
      "inputs": [
        {
          "internalType": "address",
          "name": "_nftContract",
          "type": "address"
        }
      ],
      "name": "initialize",
      "outputs": [],
      "stateMutability": "nonpayable",
      "type": "function"
    },
    {
      "inputs": [
        {
          "internalType": "uint256",
          "name": "",
          "type": "uint256"
        }
      ],
      "name": "isTokenOnAuction",
      "outputs": [
        {
          "internalType": "bool",
          "name": "",
          "type": "bool"
        }
      ],
      "stateMutability": "view",
      "type": "function"
    },
    {
      "inputs": [],
      "name": "nftContract",
      "outputs": [
        {
          "internalType": "contract IERC721",
          "name": "",
          "type": "address"
        }
      ],
      "stateMutability": "view",
      "type": "function"
    },
    {
      "inputs": [],
      "name": "owner",
      "outputs": [
        {
          "internalType": "address",
          "name": "",
          "type": "address"
        }
      ],
      "stateMutability": "view",
      "type": "function"
    },
    {
      "inputs": [
        {
          "internalType": "address",
          "name": "",
          "type": "address"
        }
      ],
      "name": "priceFeeds",
      "outputs": [
        {
          "internalType": "address",
          "name": "",
          "type": "address"
        }
      ],
      "stateMutability": "view",
      "type": "function"
    },
    {
      "inputs": [],
      "name": "proxiableUUID",
      "outputs": [
        {
          "internalType": "bytes32",
          "name": "",
          "type": "bytes32"
        }
      ],
      "stateMutability": "view",
      "type": "function"
    },
    {
      "inputs": [],
      "name": "renounceOwnership",
      "outputs": [],
      "stateMutability": "nonpayable",
      "type": "function"
    },
    {
      "inputs": [
        {
          "internalType": "uint256",
          "name": "auctionId",
          "type": "uint256"
        }
      ],
      "name": "setAuctionEndTime",
      "outputs": [],
      "stateMutability": "nonpayable",
      "type": "function"
    },
    {
      "inputs": [
        {
          "internalType": "uint256",
          "name": "auctionId",
          "type": "uint256"
        },
        {
          "internalType": "bool",
          "name": "ended",
          "type": "bool"
        }
      ],
      "name": "setAuctionEnded",
      "outputs": [],
      "stateMutability": "nonpayable",
      "type": "function"
    },
    {
      "inputs": [
        {
          "internalType": "address",
          "name": "priceFeed",
          "type": "address"
        }
      ],
      "name": "setEthPriceFeed",
      "outputs": [],
      "stateMutability": "nonpayable",
      "type": "function"
    },
    {
      "inputs": [
        {
          "internalType": "address",
          "name": "token",
          "type": "address"
        },
        {
          "internalType": "address",
          "name": "priceFeed",
          "type": "address"
        }
      ],
      "name": "setPriceFeed",
      "outputs": [],
      "stateMutability": "nonpayable",
      "type": "function"
    },
    {
      "inputs": [
        {
          "internalType": "uint256",
          "name": "",
          "type": "uint256"
        }
      ],
      "name": "tokenIdToAuctionId",
      "outputs": [
        {
          "internalType": "uint256",
          "name": "",
          "type": "uint256"
        }
      ],
      "stateMutability": "view",
      "type": "function"
    },
    {
      "inputs": [
        {
          "internalType": "address",
          "name": "newOwner",
          "type": "address"
        }
      ],
      "name": "transferOwnership",
      "outputs": [],
      "stateMutability": "nonpayable",
      "type": "function"
    },
    {
      "inputs": [
        {
          "internalType": "address",
          "name": "newImplementation",
          "type": "address"
        },
        {
          "internalType": "bytes",
          "name": "data",
          "type": "bytes"
        }
      ],
      "name": "upgradeToAndCall",
      "outputs": [],
      "stateMutability": "payable",
      "type": "function"
    }
  ],
  "bytecode": "0x60a060405230608052348015601357600080fd5b506080516121db61003d600039600081816117250152818161174e015261188f01526121db6000f3fe60806040526004361061014b5760003560e01c80639dcb511a116100b6578063c660d1121161006f578063c660d11214610555578063cda4beef14610575578063d1c1120514610595578063d56d229d146105b5578063dfab9d1c146105d5578063f2fde38b1461061557600080fd5b80639dcb511a14610451578063ac9ad63214610487578063ad3cb1cc1461049a578063b9a2de3a146104d8578063c011c9eb146104f8578063c4d66de81461053557600080fd5b806352d1902d1161010857806352d1902d14610273578063571a26a01461028857806368e8455514610384578063715018a6146103b657806376e11286146103cb5780638da5cb5b1461041457600080fd5b806308a666f3146101505780632dd4a5481461017257806339396c97146101b25780633f1ffcec146101f057806342f6fb29146102285780634f1ef28614610260575b600080fd5b34801561015c57600080fd5b5061017061016b366004611c0e565b610635565b005b34801561017e57600080fd5b5061019f61018d366004611c47565b60026020526000908152604090205481565b6040519081526020015b60405180910390f35b3480156101be57600080fd5b506101706101cd366004611c6e565b600091825260208290526040909120600801805460ff1916911515919091179055565b3480156101fc57600080fd5b5061019f61020b366004611c9e565b600460209081526000928352604080842090915290825290205481565b34801561023457600080fd5b50600654610248906001600160a01b031681565b6040516001600160a01b0390911681526020016101a9565b61017061026e366004611cd9565b61092b565b34801561027f57600080fd5b5061019f61094a565b34801561029457600080fd5b506103186102a3366004611c47565b600060208190529081526040902080546001820154600283015460038401546004850154600586015460068701546007880154600889015460098a0154600a909a0154989997986001600160a01b039788169896881697959694959394929360ff928316939290821691600160a01b9004168c565b604080519c8d5260208d019b909b526001600160a01b03998a169a8c019a909a5296881660608b015260808a019590955260a089019390935260c088019190915260e08701521515610100860152610120850152166101408301521515610160820152610180016101a9565b34801561039057600080fd5b5061017061039f366004611c47565b600090815260208190526040902042600790910155565b3480156103c257600080fd5b50610170610967565b3480156103d757600080fd5b506101706103e6366004611da5565b6001600160a01b03918216600090815260056020526040902080546001600160a01b03191691909216179055565b34801561042057600080fd5b507f9016d09d72d40fdae2fd8ceac6b6234c7706214fd39c1cd1e609a0528c199300546001600160a01b0316610248565b34801561045d57600080fd5b5061024861046c366004611dd3565b6005602052600090815260409020546001600160a01b031681565b610170610495366004611c47565b61097b565b3480156104a657600080fd5b506104cb604051806040016040528060058152602001640352e302e360dc1b81525081565b6040516101a99190611e14565b3480156104e457600080fd5b506101706104f3366004611c47565b610b9c565b34801561050457600080fd5b50610170610513366004611dd3565b600680546001600160a01b0319166001600160a01b0392909216919091179055565b34801561054157600080fd5b50610170610550366004611dd3565b610eb3565b34801561056157600080fd5b5061019f610570366004611e47565b610ff4565b34801561058157600080fd5b50610170610590366004611e73565b6111e1565b3480156105a157600080fd5b506102486105b0366004611e9f565b6115e2565b3480156105c157600080fd5b50600854610248906001600160a01b031681565b3480156105e157600080fd5b506106056105f0366004611c47565b60016020526000908152604090205460ff1681565b60405190151581526020016101a9565b34801561062157600080fd5b50610170610630366004611dd3565b61161a565b600083815260208190526040902060038101546005820154600a83015460088401546001600160a01b03938416939091169060ff16156106905760405162461bcd60e51b815260040161068790611ec1565b60405180910390fd5b836007015442106106d55760405162461bcd60e51b815260206004820152600f60248201526e105d58dd1a5bdb88195e1c1a5c9959608a1b6044820152606401610687565b60028401546001600160a01b031633036107255760405162461bcd60e51b815260206004820152601160248201527014d95b1b195c8818d85b9b9bdd08189a59607a1b6044820152606401610687565b83600401548610156107675760405162461bcd60e51b815260206004820152600b60248201526a42696420746f6f206c6f7760a81b6044820152606401610687565b6001600160a01b0385166107b55760405162461bcd60e51b8152602060048201526015602482015274496e76616c696420746f6b656e206164647265737360581b6044820152606401610687565b6001600160a01b0383161561082a5760006107d08284610ff4565b905060006107de8789610ff4565b90508181116108275760405162461bcd60e51b8152602060048201526015602482015274426964205553442076616c756520746f6f206c6f7760581b6044820152606401610687565b50505b6040516323b872dd60e01b81526001600160a01b038616906323b872dd9061085a90339030908b90600401611ef0565b6020604051808303816000875af1158015610879573d6000803e3d6000fd5b505050506040513d601f19601f8201168201806040525081019061089d9190611f14565b506001600160a01b038316156108b8576108b8838383611658565b600384018054336001600160a01b0319918216811790925560058601889055600a860180549091166001600160a01b03881617905560405187815288907f558a0d5d5468d74b0db24c74eb348b42271c2ebb4c9e953ced38aaed95fa43619060200160405180910390a350505050505050565b61093361171a565b61093c826117bf565b61094682826117c7565b5050565b6000610954611884565b5060008051602061218683398151915290565b61096f6118cd565b6109796000611928565b565b600081815260208190526040902060038101546005820154600a83015460088401546001600160a01b03938416939091169060ff16156109cd5760405162461bcd60e51b815260040161068790611ec1565b83600701544210610a125760405162461bcd60e51b815260206004820152600f60248201526e105d58dd1a5bdb88195e1c1a5c9959608a1b6044820152606401610687565b60028401546001600160a01b03163303610a625760405162461bcd60e51b815260206004820152601160248201527014d95b1b195c8818d85b9b9bdd08189a59607a1b6044820152606401610687565b8360040154341015610aa45760405162461bcd60e51b815260206004820152600b60248201526a42696420746f6f206c6f7760a81b6044820152606401610687565b6001600160a01b03831615610b1a576000610abf8284610ff4565b90506000610ace600034610ff4565b9050818111610b175760405162461bcd60e51b8152602060048201526015602482015274426964205553442076616c756520746f6f206c6f7760581b6044820152606401610687565b50505b6001600160a01b03831615610b3457610b34838383611658565b600384018054336001600160a01b031991821681179092553460058701819055600a8701805490921690915560405190815286907f558a0d5d5468d74b0db24c74eb348b42271c2ebb4c9e953ced38aaed95fa43619060200160405180910390a35050505050565b6000818152602081905260409020600881015460ff1615610bcf5760405162461bcd60e51b815260040161068790611ec1565b8060070154421015610c1b5760405162461bcd60e51b8152602060048201526015602482015274105d58dd1a5bdb881b9bdd081e595d08195b991959605a1b6044820152606401610687565b60028101546001600160a01b03163314610c775760405162461bcd60e51b815260206004820152601b60248201527f4f6e6c792073656c6c65722063616e20656e642061756374696f6e00000000006044820152606401610687565b60018082015460028301546005840154600a850154600386015460088701805460ff19908116881790915560008681526020979097526040909620805490961690955592936001600160a01b0392831693919291821691168015610dff576001600160a01b038216610d1f576040516001600160a01b0385169084156108fc029085906000818181858888f19350505050158015610d19573d6000803e3d6000fd5b50610d94565b60405163a9059cbb60e01b81526001600160a01b0385811660048301526024820185905283169063a9059cbb906044016020604051808303816000875af1158015610d6e573d6000803e3d6000fd5b505050506040513d601f19601f82011682018060405250810190610d929190611f14565b505b600854604051632142170760e11b81526001600160a01b03909116906342842e0e90610dc890309085908a90600401611ef0565b600060405180830381600087803b158015610de257600080fd5b505af1158015610df6573d6000803e3d6000fd5b50505050610e66565b600854604051632142170760e11b81526001600160a01b03909116906342842e0e90610e3390309088908a90600401611ef0565b600060405180830381600087803b158015610e4d57600080fd5b505af1158015610e61573d6000803e3d6000fd5b505050505b604080516001600160a01b03831681526020810185905288917fd2aa34a4fdbbc6dff6a3e56f46e0f3ae2a31d7785ff3487aa5c95c642acea501910160405180910390a250505050505050565b6000610ebd611999565b805490915060ff600160401b820416159067ffffffffffffffff16600081158015610ee55750825b905060008267ffffffffffffffff166001148015610f025750303b155b905081158015610f10575080155b15610f2e5760405163f92ee8a960e01b815260040160405180910390fd5b845467ffffffffffffffff191660011785558315610f5857845460ff60401b1916600160401b1785555b610f61336119c2565b610f696119d3565b600880546001600160a01b0388166001600160a01b0319918216179091556006805490911673694aa1769357215de4fac081bf1f309adc3253061790558315610fec57845460ff60401b19168555604051600181527fc7f505b2f371ae2175ee4913f4499e1f2633a7b5936321eed1cdaeb6115181d29060200160405180910390a15b505050505050565b6000806001600160a01b03841661101757506006546001600160a01b0316611034565b506001600160a01b03808416600090815260056020526040902054165b6001600160a01b03811661108a5760405162461bcd60e51b815260206004820152601860248201527f50726963652066656564206e6f7420617661696c61626c6500000000000000006044820152606401610687565b60008190506000816001600160a01b031663feaf968c6040518163ffffffff1660e01b815260040160a060405180830381865afa1580156110cf573d6000803e3d6000fd5b505050506040513d601f19601f820116820180604052508101906110f39190611f50565b505050915050600081136111495760405162461bcd60e51b815260206004820152601960248201527f496e76616c69642070726963652066726f6d206f7261636c65000000000000006044820152606401610687565b6000826001600160a01b031663313ce5676040518163ffffffff1660e01b8152600401602060405180830381865afa158015611189573d6000803e3d6000fd5b505050506040513d601f19601f820116820180604052508101906111ad9190611fa2565b905060006111bf60ff8316600a6120c2565b6111c984896120ce565b6111d391906120e5565b955050505050505b92915050565b60008381526001602052604090205460ff16156112395760405162461bcd60e51b815260206004820152601660248201527527232a1030b63932b0b23c9037b71030bab1ba34b7b760511b6044820152606401610687565b600082116112975760405162461bcd60e51b815260206004820152602560248201527f5374617274696e67207072696365206d75737420626520677265617465722074604482015264068616e20360dc1b6064820152608401610687565b610e1081101580156112ac575062278d008111155b6112eb5760405162461bcd60e51b815260206004820152601060248201526f24b73b30b634b210323ab930ba34b7b760811b6044820152606401610687565b6008546040516331a9108f60e11b81526004810185905233916001600160a01b031690636352211e90602401602060405180830381865afa158015611334573d6000803e3d6000fd5b505050506040513d601f19601f820116820180604052508101906113589190612107565b6001600160a01b03161461139e5760405162461bcd60e51b815260206004820152600d60248201526c2737ba1027232a1037bbb732b960991b6044820152606401610687565b6008546040516323b872dd60e01b81526001600160a01b03909116906323b872dd906113d290339030908890600401611ef0565b600060405180830381600087803b1580156113ec57600080fd5b505af1158015611400573d6000803e3d6000fd5b5050600780546000935091508261141683612124565b9190505590506000604051806101800160405280838152602001868152602001336001600160a01b0316815260200160006001600160a01b03168152602001858152602001600081526020014281526020018442611474919061213d565b815260006020808301829052662386f26fc1000060408085019190915260608085018490526080948501849052878452838352818420865181558684015160018281019190915587840151600280840180546001600160a01b039384166001600160a01b031991821617909155948a0151600385018054918416919096161790945596880151600483015560a0880151600583015560c0880151600683015560e0880151600783015561010088015160088301805491151560ff199283161790556101208901516009840155610140890151600a90930180546101608b01511515600160a01b026001600160a81b03199091169490991693909317979097179091558b8552808452828520805490961617909455929052819020849055519091503390869084907fc01e7da6ec06ecf5e1b887799549c755425a022ab59da72fa2d8c6255c10bc85906115d39089908990918252602082015260400190565b60405180910390a45050505050565b600360205281600052604060002081815481106115fe57600080fd5b6000918252602090912001546001600160a01b03169150829050565b6116226118cd565b6001600160a01b03811661164c57604051631e4fbdf760e01b815260006004820152602401610687565b61165581611928565b50565b6001600160a01b0381166116a2576040516001600160a01b0384169083156108fc029084906000818181858888f1935050505015801561169c573d6000803e3d6000fd5b50505050565b60405163a9059cbb60e01b81526001600160a01b0384811660048301526024820184905282169063a9059cbb906044016020604051808303816000875af11580156116f1573d6000803e3d6000fd5b505050506040513d601f19601f8201168201806040525081019061169c9190611f14565b505050565b306001600160a01b037f00000000000000000000000000000000000000000000000000000000000000001614806117a157507f00000000000000000000000000000000000000000000000000000000000000006001600160a01b0316611795600080516020612186833981519152546001600160a01b031690565b6001600160a01b031614155b156109795760405163703e46dd60e11b815260040160405180910390fd5b6116556118cd565b816001600160a01b03166352d1902d6040518163ffffffff1660e01b8152600401602060405180830381865afa925050508015611821575060408051601f3d908101601f1916820190925261181e91810190612150565b60015b61184957604051634c9c8ce360e01b81526001600160a01b0383166004820152602401610687565b600080516020612186833981519152811461187a57604051632a87526960e21b815260048101829052602401610687565b61171583836119db565b306001600160a01b037f000000000000000000000000000000000000000000000000000000000000000016146109795760405163703e46dd60e11b815260040160405180910390fd5b336118ff7f9016d09d72d40fdae2fd8ceac6b6234c7706214fd39c1cd1e609a0528c199300546001600160a01b031690565b6001600160a01b0316146109795760405163118cdaa760e01b8152336004820152602401610687565b7f9016d09d72d40fdae2fd8ceac6b6234c7706214fd39c1cd1e609a0528c19930080546001600160a01b031981166001600160a01b03848116918217845560405192169182907f8be0079c531659141344cd1fd0a4f28419497f9722a3daafe3b4186f6b6457e090600090a3505050565b6000807ff0c57e16840df040f15088dc2f81fe391c3923bec73e23a9662efc9c229c6a006111db565b6119ca611a31565b61165581611a56565b610979611a31565b6119e482611a5e565b6040516001600160a01b038316907fbc7cd75a20ee27fd9adebab32041f755214dbc6bffa90cc0225b39da2e5c2d3b90600090a2805115611a29576117158282611ac3565b610946611b39565b611a39611b58565b61097957604051631afcd79f60e31b815260040160405180910390fd5b611622611a31565b806001600160a01b03163b600003611a9457604051634c9c8ce360e01b81526001600160a01b0382166004820152602401610687565b60008051602061218683398151915280546001600160a01b0319166001600160a01b0392909216919091179055565b6060600080846001600160a01b031684604051611ae09190612169565b600060405180830381855af49150503d8060008114611b1b576040519150601f19603f3d011682016040523d82523d6000602084013e611b20565b606091505b5091509150611b30858383611b72565b95945050505050565b34156109795760405163b398979f60e01b815260040160405180910390fd5b6000611b62611999565b54600160401b900460ff16919050565b606082611b8757611b8282611bd1565b611bca565b8151158015611b9e57506001600160a01b0384163b155b15611bc757604051639996b31560e01b81526001600160a01b0385166004820152602401610687565b50805b9392505050565b805115611be057805160208201fd5b60405163d6bda27560e01b815260040160405180910390fd5b6001600160a01b038116811461165557600080fd5b600080600060608486031215611c2357600080fd5b83359250602084013591506040840135611c3c81611bf9565b809150509250925092565b600060208284031215611c5957600080fd5b5035919050565b801515811461165557600080fd5b60008060408385031215611c8157600080fd5b823591506020830135611c9381611c60565b809150509250929050565b60008060408385031215611cb157600080fd5b823591506020830135611c9381611bf9565b634e487b7160e01b600052604160045260246000fd5b60008060408385031215611cec57600080fd5b8235611cf781611bf9565b9150602083013567ffffffffffffffff811115611d1357600080fd5b8301601f81018513611d2457600080fd5b803567ffffffffffffffff811115611d3e57611d3e611cc3565b604051601f8201601f19908116603f0116810167ffffffffffffffff81118282101715611d6d57611d6d611cc3565b604052818152828201602001871015611d8557600080fd5b816020840160208301376000602083830101528093505050509250929050565b60008060408385031215611db857600080fd5b8235611dc381611bf9565b91506020830135611c9381611bf9565b600060208284031215611de557600080fd5b8135611bca81611bf9565b60005b83811015611e0b578181015183820152602001611df3565b50506000910152565b6020815260008251806020840152611e33816040850160208701611df0565b601f01601f19169190910160400192915050565b60008060408385031215611e5a57600080fd5b8235611e6581611bf9565b946020939093013593505050565b600080600060608486031215611e8857600080fd5b505081359360208301359350604090920135919050565b60008060408385031215611eb257600080fd5b50508035926020909101359150565b602080825260159082015274105d58dd1a5bdb88185b1c9958591e48195b991959605a1b604082015260600190565b6001600160a01b039384168152919092166020820152604081019190915260600190565b600060208284031215611f2657600080fd5b8151611bca81611c60565b805169ffffffffffffffffffff81168114611f4b57600080fd5b919050565b600080600080600060a08688031215611f6857600080fd5b611f7186611f31565b60208701516040880151606089015192975090955093509150611f9660808701611f31565b90509295509295909350565b600060208284031215611fb457600080fd5b815160ff81168114611bca57600080fd5b634e487b7160e01b600052601160045260246000fd5b6001815b600184111561201657808504811115611ffa57611ffa611fc5565b600184161561200857908102905b60019390931c928002611fdf565b935093915050565b60008261202d575060016111db565b8161203a575060006111db565b8160018114612050576002811461205a57612076565b60019150506111db565b60ff84111561206b5761206b611fc5565b50506001821b6111db565b5060208310610133831016604e8410600b8410161715612099575081810a6111db565b6120a66000198484611fdb565b80600019048211156120ba576120ba611fc5565b029392505050565b6000611bca838361201e565b80820281158282048414176111db576111db611fc5565b60008261210257634e487b7160e01b600052601260045260246000fd5b500490565b60006020828403121561211957600080fd5b8151611bca81611bf9565b60006001820161213657612136611fc5565b5060010190565b808201808211156111db576111db611fc5565b60006020828403121561216257600080fd5b5051919050565b6000825161217b818460208701611df0565b919091019291505056fe360894a13ba1a3210667c828492db98dca3e2076cc3735a920a3ca505d382bbca2646970667358221220660392469f43386de9b43e4faa9bece499f9808a295349ffc52f10f41d32503864736f6c634300081c0033",
  "linkReferences": {},
  "deployedLinkReferences": {}
}